{
  "_format": "hh-sol-artifact-1",
  "contractName": "NFTMarketPlace",
  "sourceName": "contracts/nftmarketplace.sol",
  "abi": [
    {
      "inputs": [],
      "stateMutability": "nonpayable",
      "type": "constructor"
    },
    {
      "anonymous": false,
      "inputs": [
        {
          "indexed": true,
          "internalType": "address",
          "name": "owner",
          "type": "address"
        },
        {
          "indexed": true,
          "internalType": "address",
          "name": "approved",
          "type": "address"
        },
        {
          "indexed": true,
          "internalType": "uint256",
          "name": "tokenId",
          "type": "uint256"
        }
      ],
      "name": "Approval",
      "type": "event"
    },
    {
      "anonymous": false,
      "inputs": [
        {
          "indexed": true,
          "internalType": "address",
          "name": "owner",
          "type": "address"
        },
        {
          "indexed": true,
          "internalType": "address",
          "name": "operator",
          "type": "address"
        },
        {
          "indexed": false,
          "internalType": "bool",
          "name": "approved",
          "type": "bool"
        }
      ],
      "name": "ApprovalForAll",
      "type": "event"
    },
    {
      "anonymous": false,
      "inputs": [
        {
          "indexed": false,
          "internalType": "uint256",
          "name": "_fromTokenId",
          "type": "uint256"
        },
        {
          "indexed": false,
          "internalType": "uint256",
          "name": "_toTokenId",
          "type": "uint256"
        }
      ],
      "name": "BatchMetadataUpdate",
      "type": "event"
    },
    {
      "anonymous": false,
      "inputs": [
        {
          "indexed": false,
          "internalType": "uint256",
          "name": "_tokenId",
          "type": "uint256"
        }
      ],
      "name": "MetadataUpdate",
      "type": "event"
    },
    {
      "anonymous": false,
      "inputs": [
        {
          "indexed": true,
          "internalType": "address",
          "name": "from",
          "type": "address"
        },
        {
          "indexed": true,
          "internalType": "address",
          "name": "to",
          "type": "address"
        },
        {
          "indexed": true,
          "internalType": "uint256",
          "name": "tokenId",
          "type": "uint256"
        }
      ],
      "name": "Transfer",
      "type": "event"
    },
    {
      "anonymous": false,
      "inputs": [
        {
          "indexed": true,
          "internalType": "uint256",
          "name": "tokenId",
          "type": "uint256"
        },
        {
          "indexed": false,
          "internalType": "address",
          "name": "seller",
          "type": "address"
        },
        {
          "indexed": false,
          "internalType": "address",
          "name": "owner",
          "type": "address"
        },
        {
          "indexed": false,
          "internalType": "uint256",
          "name": "price",
          "type": "uint256"
        },
        {
          "indexed": false,
          "internalType": "bool",
          "name": "sold",
          "type": "bool"
        }
      ],
      "name": "idMarketItemCreated",
      "type": "event"
    },
    {
      "inputs": [
        {
          "internalType": "address",
          "name": "to",
          "type": "address"
        },
        {
          "internalType": "uint256",
          "name": "tokenId",
          "type": "uint256"
        }
      ],
      "name": "approve",
      "outputs": [],
      "stateMutability": "nonpayable",
      "type": "function"
    },
    {
      "inputs": [
        {
          "internalType": "address",
          "name": "owner",
          "type": "address"
        }
      ],
      "name": "balanceOf",
      "outputs": [
        {
          "internalType": "uint256",
          "name": "",
          "type": "uint256"
        }
      ],
      "stateMutability": "view",
      "type": "function"
    },
    {
      "inputs": [
        {
          "internalType": "uint256",
          "name": "tokenId",
          "type": "uint256"
        }
      ],
      "name": "createMarketSale",
      "outputs": [],
      "stateMutability": "payable",
      "type": "function"
    },
    {
      "inputs": [
        {
          "internalType": "string",
          "name": "tokenURI",
          "type": "string"
        },
        {
          "internalType": "uint256",
          "name": "price",
          "type": "uint256"
        }
      ],
      "name": "createToken",
      "outputs": [
        {
          "internalType": "uint256",
          "name": "",
          "type": "uint256"
        }
      ],
      "stateMutability": "payable",
      "type": "function"
    },
    {
      "inputs": [],
      "name": "fetchItemsListed",
      "outputs": [
        {
          "components": [
            {
              "internalType": "uint256",
              "name": "tokenId",
              "type": "uint256"
            },
            {
              "internalType": "address payable",
              "name": "seller",
              "type": "address"
            },
            {
              "internalType": "address payable",
              "name": "owner",
              "type": "address"
            },
            {
              "internalType": "uint256",
              "name": "price",
              "type": "uint256"
            },
            {
              "internalType": "bool",
              "name": "sold",
              "type": "bool"
            }
          ],
          "internalType": "struct NFTMarketPlace.MarketItem[]",
          "name": "",
          "type": "tuple[]"
        }
      ],
      "stateMutability": "view",
      "type": "function"
    },
    {
      "inputs": [],
      "name": "fetchMyNFT",
      "outputs": [
        {
          "components": [
            {
              "internalType": "uint256",
              "name": "tokenId",
              "type": "uint256"
            },
            {
              "internalType": "address payable",
              "name": "seller",
              "type": "address"
            },
            {
              "internalType": "address payable",
              "name": "owner",
              "type": "address"
            },
            {
              "internalType": "uint256",
              "name": "price",
              "type": "uint256"
            },
            {
              "internalType": "bool",
              "name": "sold",
              "type": "bool"
            }
          ],
          "internalType": "struct NFTMarketPlace.MarketItem[]",
          "name": "",
          "type": "tuple[]"
        }
      ],
      "stateMutability": "view",
      "type": "function"
    },
    {
      "inputs": [],
      "name": "fetchmarketItem",
      "outputs": [
        {
          "components": [
            {
              "internalType": "uint256",
              "name": "tokenId",
              "type": "uint256"
            },
            {
              "internalType": "address payable",
              "name": "seller",
              "type": "address"
            },
            {
              "internalType": "address payable",
              "name": "owner",
              "type": "address"
            },
            {
              "internalType": "uint256",
              "name": "price",
              "type": "uint256"
            },
            {
              "internalType": "bool",
              "name": "sold",
              "type": "bool"
            }
          ],
          "internalType": "struct NFTMarketPlace.MarketItem[]",
          "name": "",
          "type": "tuple[]"
        }
      ],
      "stateMutability": "view",
      "type": "function"
    },
    {
      "inputs": [
        {
          "internalType": "uint256",
          "name": "tokenId",
          "type": "uint256"
        }
      ],
      "name": "getApproved",
      "outputs": [
        {
          "internalType": "address",
          "name": "",
          "type": "address"
        }
      ],
      "stateMutability": "view",
      "type": "function"
    },
    {
      "inputs": [],
      "name": "getlistingPrice",
      "outputs": [
        {
          "internalType": "uint256",
          "name": "",
          "type": "uint256"
        }
      ],
      "stateMutability": "view",
      "type": "function"
    },
    {
      "inputs": [
        {
          "internalType": "address",
          "name": "owner",
          "type": "address"
        },
        {
          "internalType": "address",
          "name": "operator",
          "type": "address"
        }
      ],
      "name": "isApprovedForAll",
      "outputs": [
        {
          "internalType": "bool",
          "name": "",
          "type": "bool"
        }
      ],
      "stateMutability": "view",
      "type": "function"
    },
    {
      "inputs": [],
      "name": "name",
      "outputs": [
        {
          "internalType": "string",
          "name": "",
          "type": "string"
        }
      ],
      "stateMutability": "view",
      "type": "function"
    },
    {
      "inputs": [
        {
          "internalType": "uint256",
          "name": "tokenId",
          "type": "uint256"
        }
      ],
      "name": "ownerOf",
      "outputs": [
        {
          "internalType": "address",
          "name": "",
          "type": "address"
        }
      ],
      "stateMutability": "view",
      "type": "function"
    },
    {
      "inputs": [
        {
          "internalType": "uint256",
          "name": "tokenId",
          "type": "uint256"
        },
        {
          "internalType": "uint256",
          "name": "price",
          "type": "uint256"
        }
      ],
      "name": "reSellToken",
      "outputs": [],
      "stateMutability": "payable",
      "type": "function"
    },
    {
      "inputs": [
        {
          "internalType": "address",
          "name": "from",
          "type": "address"
        },
        {
          "internalType": "address",
          "name": "to",
          "type": "address"
        },
        {
          "internalType": "uint256",
          "name": "tokenId",
          "type": "uint256"
        }
      ],
      "name": "safeTransferFrom",
      "outputs": [],
      "stateMutability": "nonpayable",
      "type": "function"
    },
    {
      "inputs": [
        {
          "internalType": "address",
          "name": "from",
          "type": "address"
        },
        {
          "internalType": "address",
          "name": "to",
          "type": "address"
        },
        {
          "internalType": "uint256",
          "name": "tokenId",
          "type": "uint256"
        },
        {
          "internalType": "bytes",
          "name": "data",
          "type": "bytes"
        }
      ],
      "name": "safeTransferFrom",
      "outputs": [],
      "stateMutability": "nonpayable",
      "type": "function"
    },
    {
      "inputs": [
        {
          "internalType": "address",
          "name": "operator",
          "type": "address"
        },
        {
          "internalType": "bool",
          "name": "approved",
          "type": "bool"
        }
      ],
      "name": "setApprovalForAll",
      "outputs": [],
      "stateMutability": "nonpayable",
      "type": "function"
    },
    {
      "inputs": [
        {
          "internalType": "bytes4",
          "name": "interfaceId",
          "type": "bytes4"
        }
      ],
      "name": "supportsInterface",
      "outputs": [
        {
          "internalType": "bool",
          "name": "",
          "type": "bool"
        }
      ],
      "stateMutability": "view",
      "type": "function"
    },
    {
      "inputs": [],
      "name": "symbol",
      "outputs": [
        {
          "internalType": "string",
          "name": "",
          "type": "string"
        }
      ],
      "stateMutability": "view",
      "type": "function"
    },
    {
      "inputs": [
        {
          "internalType": "uint256",
          "name": "tokenId",
          "type": "uint256"
        }
      ],
      "name": "tokenURI",
      "outputs": [
        {
          "internalType": "string",
          "name": "",
          "type": "string"
        }
      ],
      "stateMutability": "view",
      "type": "function"
    },
    {
      "inputs": [
        {
          "internalType": "address",
          "name": "from",
          "type": "address"
        },
        {
          "internalType": "address",
          "name": "to",
          "type": "address"
        },
        {
          "internalType": "uint256",
          "name": "tokenId",
          "type": "uint256"
        }
      ],
      "name": "transferFrom",
      "outputs": [],
      "stateMutability": "nonpayable",
      "type": "function"
    },
    {
      "inputs": [
        {
          "internalType": "uint256",
          "name": "_listingprice",
          "type": "uint256"
        }
      ],
      "name": "updateListingPrice",
      "outputs": [],
      "stateMutability": "payable",
      "type": "function"
    }
  ],
  "bytecode": "0x60806040526605543df729c0006009553480156200001c57600080fd5b506040518060400160405280601381526020017f4e4654204d657461766572736520546f6b656e000000000000000000000000008152506040518060400160405280600681526020017f41525956454400000000000000000000000000000000000000000000000000008152508160009080519060200190620000a1929190620000e9565b508060019080519060200190620000ba929190620000e9565b5050503373ffffffffffffffffffffffffffffffffffffffff16600a60009054906101000a90505050620001fe565b828054620000f79062000199565b90600052602060002090601f0160209004810192826200011b576000855562000167565b82601f106200013657805160ff191683800117855562000167565b8280016001018555821562000167579182015b828111156200016657825182559160200191906001019062000149565b5b5090506200017691906200017a565b5090565b5b80821115620001955760008160009055506001016200017b565b5090565b60006002820490506001821680620001b257607f821691505b60208210811415620001c957620001c8620001cf565b5b50919050565b7f4e487b7100000000000000000000000000000000000000000000000000000000600052602260045260246000fd5b6142e7806200020e6000396000f3fe60806040526004361061012a5760003560e01c806370a08231116100ab578063ae677aa31161006f578063ae677aa3146103ea578063b88d4fde14610406578063be9af5361461042f578063c18763f71461044b578063c87b56dd14610476578063e985e9c5146104b35761012a565b806370a082311461030d57806372b3b6201461034a57806385535b251461037a57806395d89b4114610396578063a22cb465146103c15761012a565b806323b872dd116100f257806323b872dd1461022857806342842e0e1461025157806345f8fa801461027a5780636352211e146102a55780636b0a2d11146102e25761012a565b806301ffc9a71461012f57806306fdde031461016c578063081812fc14610197578063095ea7b3146101d457806318f131e1146101fd575b600080fd5b34801561013b57600080fd5b50610156600480360381019061015191906130e0565b6104f0565b6040516101639190613751565b60405180910390f35b34801561017857600080fd5b50610181610551565b60405161018e919061376c565b60405180910390f35b3480156101a357600080fd5b506101be60048036038101906101b99190613186565b6105e3565b6040516101cb9190613683565b60405180910390f35b3480156101e057600080fd5b506101fb60048036038101906101f691906130a4565b610629565b005b34801561020957600080fd5b50610212610741565b60405161021f919061372f565b60405180910390f35b34801561023457600080fd5b5061024f600480360381019061024a9190612f9e565b6109f6565b005b34801561025d57600080fd5b5061027860048036038101906102739190612f9e565b610a56565b005b34801561028657600080fd5b5061028f610a76565b60405161029c919061372f565b60405180910390f35b3480156102b157600080fd5b506102cc60048036038101906102c79190613186565b610db0565b6040516102d99190613683565b60405180910390f35b3480156102ee57600080fd5b506102f7610e37565b60405161030491906139ee565b60405180910390f35b34801561031957600080fd5b50610334600480360381019061032f9190612f39565b610e41565b60405161034191906139ee565b60405180910390f35b610364600480360381019061035f9190613132565b610ef9565b60405161037191906139ee565b60405180910390f35b610394600480360381019061038f91906131af565b610f3b565b005b3480156103a257600080fd5b506103ab611130565b6040516103b8919061376c565b60405180910390f35b3480156103cd57600080fd5b506103e860048036038101906103e39190613068565b6111c2565b005b61040460048036038101906103ff9190613186565b6111d8565b005b34801561041257600080fd5b5061042d60048036038101906104289190612fed565b61126b565b005b61044960048036038101906104449190613186565b6112cd565b005b34801561045757600080fd5b50610460611505565b60405161046d919061372f565b60405180910390f35b34801561048257600080fd5b5061049d60048036038101906104989190613186565b61183f565b6040516104aa919061376c565b60405180910390f35b3480156104bf57600080fd5b506104da60048036038101906104d59190612f62565b611952565b6040516104e79190613751565b60405180910390f35b6000634906490660e01b7bffffffffffffffffffffffffffffffffffffffffffffffffffffffff1916827bffffffffffffffffffffffffffffffffffffffffffffffffffffffff1916148061054a5750610549826119e6565b5b9050919050565b60606000805461056090613c5e565b80601f016020809104026020016040519081016040528092919081815260200182805461058c90613c5e565b80156105d95780601f106105ae576101008083540402835291602001916105d9565b820191906000526020600020905b8154815290600101906020018083116105bc57829003601f168201915b5050505050905090565b60006105ee82611ac8565b6004600083815260200190815260200160002060009054906101000a900473ffffffffffffffffffffffffffffffffffffffff169050919050565b600061063482610db0565b90508073ffffffffffffffffffffffffffffffffffffffff168373ffffffffffffffffffffffffffffffffffffffff1614156106a5576040517f08c379a000000000000000000000000000000000000000000000000000000000815260040161069c9061396e565b60405180910390fd5b8073ffffffffffffffffffffffffffffffffffffffff166106c4611b13565b73ffffffffffffffffffffffffffffffffffffffff1614806106f357506106f2816106ed611b13565b611952565b5b610732576040517f08c379a00000000000000000000000000000000000000000000000000000000081526004016107299061398e565b60405180910390fd5b61073c8383611b1b565b505050565b6060600061074f6007611bd4565b9050600061075d6008611bd4565b6107676007611bd4565b6107719190613b62565b90506000808267ffffffffffffffff8111156107b6577f4e487b7100000000000000000000000000000000000000000000000000000000600052604160045260246000fd5b6040519080825280602002602001820160405280156107ef57816020015b6107dc612d00565b8152602001906001900390816107d45790505b50905060005b848110156109eb573073ffffffffffffffffffffffffffffffffffffffff16600b60006001846108259190613b0c565b815260200190815260200160002060020160009054906101000a900473ffffffffffffffffffffffffffffffffffffffff1673ffffffffffffffffffffffffffffffffffffffff1614156109d85760006001826108829190613b0c565b90506000600b60008381526020019081526020016000209050806040518060a0016040529081600082015481526020016001820160009054906101000a900473ffffffffffffffffffffffffffffffffffffffff1673ffffffffffffffffffffffffffffffffffffffff1673ffffffffffffffffffffffffffffffffffffffff1681526020016002820160009054906101000a900473ffffffffffffffffffffffffffffffffffffffff1673ffffffffffffffffffffffffffffffffffffffff1673ffffffffffffffffffffffffffffffffffffffff168152602001600382015481526020016004820160009054906101000a900460ff1615151515815250508486815181106109bb577f4e487b7100000000000000000000000000000000000000000000000000000000600052603260045260246000fd5b60200260200101819052506001856109d39190613b0c565b945050505b80806109e390613cc1565b9150506107f5565b508094505050505090565b610a07610a01611b13565b82611be2565b610a46576040517f08c379a0000000000000000000000000000000000000000000000000000000008152600401610a3d906137ae565b60405180910390fd5b610a51838383611c77565b505050565b610a718383836040518060200160405280600081525061126b565b505050565b60606000610a846007611bd4565b905060008060005b83811015610b2d573373ffffffffffffffffffffffffffffffffffffffff16600b6000600184610abc9190613b0c565b815260200190815260200160002060010160009054906101000a900473ffffffffffffffffffffffffffffffffffffffff1673ffffffffffffffffffffffffffffffffffffffff161415610b1a57600183610b179190613b0c565b92505b8080610b2590613cc1565b915050610a8c565b5060008267ffffffffffffffff811115610b70577f4e487b7100000000000000000000000000000000000000000000000000000000600052604160045260246000fd5b604051908082528060200260200182016040528015610ba957816020015b610b96612d00565b815260200190600190039081610b8e5790505b50905060005b83811015610da5573373ffffffffffffffffffffffffffffffffffffffff16600b6000600184610bdf9190613b0c565b815260200190815260200160002060010160009054906101000a900473ffffffffffffffffffffffffffffffffffffffff1673ffffffffffffffffffffffffffffffffffffffff161415610d92576000600182610c3c9190613b0c565b90506000600b60008381526020019081526020016000209050806040518060a0016040529081600082015481526020016001820160009054906101000a900473ffffffffffffffffffffffffffffffffffffffff1673ffffffffffffffffffffffffffffffffffffffff1673ffffffffffffffffffffffffffffffffffffffff1681526020016002820160009054906101000a900473ffffffffffffffffffffffffffffffffffffffff1673ffffffffffffffffffffffffffffffffffffffff1673ffffffffffffffffffffffffffffffffffffffff168152602001600382015481526020016004820160009054906101000a900460ff161515151581525050848681518110610d75577f4e487b7100000000000000000000000000000000000000000000000000000000600052603260045260246000fd5b6020026020010181905250600185610d8d9190613b0c565b945050505b8080610d9d90613cc1565b915050610baf565b508094505050505090565b600080610dbc83611f71565b9050600073ffffffffffffffffffffffffffffffffffffffff168173ffffffffffffffffffffffffffffffffffffffff161415610e2e576040517f08c379a0000000000000000000000000000000000000000000000000000000008152600401610e259061394e565b60405180910390fd5b80915050919050565b6000600954905090565b60008073ffffffffffffffffffffffffffffffffffffffff168273ffffffffffffffffffffffffffffffffffffffff161415610eb2576040517f08c379a0000000000000000000000000000000000000000000000000000000008152600401610ea9906138ce565b60405180910390fd5b600360008373ffffffffffffffffffffffffffffffffffffffff1673ffffffffffffffffffffffffffffffffffffffff168152602001908152602001600020549050919050565b6000610f056007611fae565b6000610f116007611bd4565b9050610f1d3382611fc4565b610f2781856121e2565b610f31818461228d565b8091505092915050565b3373ffffffffffffffffffffffffffffffffffffffff16600b600084815260200190815260200160002060020160009054906101000a900473ffffffffffffffffffffffffffffffffffffffff1673ffffffffffffffffffffffffffffffffffffffff1614610fdf576040517f08c379a0000000000000000000000000000000000000000000000000000000008152600401610fd69061378e565b60405180910390fd5b6009543414611023576040517f08c379a000000000000000000000000000000000000000000000000000000000815260040161101a906139ce565b60405180910390fd5b6000600b600084815260200190815260200160002060040160006101000a81548160ff02191690831515021790555080600b60008481526020019081526020016000206003018190555033600b600084815260200190815260200160002060010160006101000a81548173ffffffffffffffffffffffffffffffffffffffff021916908373ffffffffffffffffffffffffffffffffffffffff16021790555030600b600084815260200190815260200160002060020160006101000a81548173ffffffffffffffffffffffffffffffffffffffff021916908373ffffffffffffffffffffffffffffffffffffffff1602179055506111216008612490565b61112c333084611c77565b5050565b60606001805461113f90613c5e565b80601f016020809104026020016040519081016040528092919081815260200182805461116b90613c5e565b80156111b85780601f1061118d576101008083540402835291602001916111b8565b820191906000526020600020905b81548152906001019060200180831161119b57829003601f168201915b5050505050905090565b6111d46111cd611b13565b83836124ec565b5050565b600a60009054906101000a900473ffffffffffffffffffffffffffffffffffffffff1673ffffffffffffffffffffffffffffffffffffffff163373ffffffffffffffffffffffffffffffffffffffff1614611268576040517f08c379a000000000000000000000000000000000000000000000000000000000815260040161125f9061380e565b60405180910390fd5b50565b61127c611276611b13565b83611be2565b6112bb576040517f08c379a00000000000000000000000000000000000000000000000000000000081526004016112b2906137ae565b60405180910390fd5b6112c784848484612659565b50505050565b6000600b600083815260200190815260200160002060030154905080341461132a576040517f08c379a0000000000000000000000000000000000000000000000000000000008152600401611321906139ae565b60405180910390fd5b33600b600084815260200190815260200160002060020160006101000a81548173ffffffffffffffffffffffffffffffffffffffff021916908373ffffffffffffffffffffffffffffffffffffffff1602179055506001600b600084815260200190815260200160002060040160006101000a81548160ff0219169083151502179055506000600b600084815260200190815260200160002060020160006101000a81548173ffffffffffffffffffffffffffffffffffffffff021916908373ffffffffffffffffffffffffffffffffffffffff16021790555061140e6008611fae565b611419303384611c77565b600a60009054906101000a900473ffffffffffffffffffffffffffffffffffffffff1673ffffffffffffffffffffffffffffffffffffffff166108fc6009549081150290604051600060405180830381858888f19350505050158015611483573d6000803e3d6000fd5b50600b600083815260200190815260200160002060010160009054906101000a900473ffffffffffffffffffffffffffffffffffffffff1673ffffffffffffffffffffffffffffffffffffffff166108fc349081150290604051600060405180830381858888f19350505050158015611500573d6000803e3d6000fd5b505050565b606060006115136007611bd4565b905060008060005b838110156115bc573373ffffffffffffffffffffffffffffffffffffffff16600b600060018461154b9190613b0c565b815260200190815260200160002060020160009054906101000a900473ffffffffffffffffffffffffffffffffffffffff1673ffffffffffffffffffffffffffffffffffffffff1614156115a9576001836115a69190613b0c565b92505b80806115b490613cc1565b91505061151b565b5060008267ffffffffffffffff8111156115ff577f4e487b7100000000000000000000000000000000000000000000000000000000600052604160045260246000fd5b60405190808252806020026020018201604052801561163857816020015b611625612d00565b81526020019060019003908161161d5790505b50905060005b84811015611834573373ffffffffffffffffffffffffffffffffffffffff16600b600060018461166e9190613b0c565b815260200190815260200160002060020160009054906101000a900473ffffffffffffffffffffffffffffffffffffffff1673ffffffffffffffffffffffffffffffffffffffff1614156118215760006001826116cb9190613b0c565b90506000600b60008381526020019081526020016000209050806040518060a0016040529081600082015481526020016001820160009054906101000a900473ffffffffffffffffffffffffffffffffffffffff1673ffffffffffffffffffffffffffffffffffffffff1673ffffffffffffffffffffffffffffffffffffffff1681526020016002820160009054906101000a900473ffffffffffffffffffffffffffffffffffffffff1673ffffffffffffffffffffffffffffffffffffffff1673ffffffffffffffffffffffffffffffffffffffff168152602001600382015481526020016004820160009054906101000a900460ff161515151581525050848681518110611804577f4e487b7100000000000000000000000000000000000000000000000000000000600052603260045260246000fd5b602002602001018190525060018561181c9190613b0c565b945050505b808061182c90613cc1565b91505061163e565b508094505050505090565b606061184a82611ac8565b600060066000848152602001908152602001600020805461186a90613c5e565b80601f016020809104026020016040519081016040528092919081815260200182805461189690613c5e565b80156118e35780601f106118b8576101008083540402835291602001916118e3565b820191906000526020600020905b8154815290600101906020018083116118c657829003601f168201915b5050505050905060006118f46126b5565b905060008151141561190a57819250505061194d565b60008251111561193f57808260405160200161192792919061365f565b6040516020818303038152906040529250505061194d565b611948846126cc565b925050505b919050565b6000600560008473ffffffffffffffffffffffffffffffffffffffff1673ffffffffffffffffffffffffffffffffffffffff16815260200190815260200160002060008373ffffffffffffffffffffffffffffffffffffffff1673ffffffffffffffffffffffffffffffffffffffff16815260200190815260200160002060009054906101000a900460ff16905092915050565b60007f80ac58cd000000000000000000000000000000000000000000000000000000007bffffffffffffffffffffffffffffffffffffffffffffffffffffffff1916827bffffffffffffffffffffffffffffffffffffffffffffffffffffffff19161480611ab157507f5b5e139f000000000000000000000000000000000000000000000000000000007bffffffffffffffffffffffffffffffffffffffffffffffffffffffff1916827bffffffffffffffffffffffffffffffffffffffffffffffffffffffff1916145b80611ac15750611ac082612734565b5b9050919050565b611ad18161279e565b611b10576040517f08c379a0000000000000000000000000000000000000000000000000000000008152600401611b079061394e565b60405180910390fd5b50565b600033905090565b816004600083815260200190815260200160002060006101000a81548173ffffffffffffffffffffffffffffffffffffffff021916908373ffffffffffffffffffffffffffffffffffffffff160217905550808273ffffffffffffffffffffffffffffffffffffffff16611b8e83610db0565b73ffffffffffffffffffffffffffffffffffffffff167f8c5be1e5ebec7d5bd14f71427d1e84f3dd0314c0f7b2291e5b200ac8c7c3b92560405160405180910390a45050565b600081600001549050919050565b600080611bee83610db0565b90508073ffffffffffffffffffffffffffffffffffffffff168473ffffffffffffffffffffffffffffffffffffffff161480611c305750611c2f8185611952565b5b80611c6e57508373ffffffffffffffffffffffffffffffffffffffff16611c56846105e3565b73ffffffffffffffffffffffffffffffffffffffff16145b91505092915050565b8273ffffffffffffffffffffffffffffffffffffffff16611c9782610db0565b73ffffffffffffffffffffffffffffffffffffffff1614611ced576040517f08c379a0000000000000000000000000000000000000000000000000000000008152600401611ce49061382e565b60405180910390fd5b600073ffffffffffffffffffffffffffffffffffffffff168273ffffffffffffffffffffffffffffffffffffffff161415611d5d576040517f08c379a0000000000000000000000000000000000000000000000000000000008152600401611d549061386e565b60405180910390fd5b611d6a83838360016127df565b8273ffffffffffffffffffffffffffffffffffffffff16611d8a82610db0565b73ffffffffffffffffffffffffffffffffffffffff1614611de0576040517f08c379a0000000000000000000000000000000000000000000000000000000008152600401611dd79061382e565b60405180910390fd5b6004600082815260200190815260200160002060006101000a81549073ffffffffffffffffffffffffffffffffffffffff02191690556001600360008573ffffffffffffffffffffffffffffffffffffffff1673ffffffffffffffffffffffffffffffffffffffff168152602001908152602001600020600082825403925050819055506001600360008473ffffffffffffffffffffffffffffffffffffffff1673ffffffffffffffffffffffffffffffffffffffff16815260200190815260200160002060008282540192505081905550816002600083815260200190815260200160002060006101000a81548173ffffffffffffffffffffffffffffffffffffffff021916908373ffffffffffffffffffffffffffffffffffffffff160217905550808273ffffffffffffffffffffffffffffffffffffffff168473ffffffffffffffffffffffffffffffffffffffff167fddf252ad1be2c89b69c2b068fc378daa952ba7f163c4a11628f55a4df523b3ef60405160405180910390a4611f6c83838360016127e5565b505050565b60006002600083815260200190815260200160002060009054906101000a900473ffffffffffffffffffffffffffffffffffffffff169050919050565b6001816000016000828254019250508190555050565b600073ffffffffffffffffffffffffffffffffffffffff168273ffffffffffffffffffffffffffffffffffffffff161415612034576040517f08c379a000000000000000000000000000000000000000000000000000000000815260040161202b9061390e565b60405180910390fd5b61203d8161279e565b1561207d576040517f08c379a00000000000000000000000000000000000000000000000000000000081526004016120749061384e565b60405180910390fd5b61208b6000838360016127df565b6120948161279e565b156120d4576040517f08c379a00000000000000000000000000000000000000000000000000000000081526004016120cb9061384e565b60405180910390fd5b6001600360008473ffffffffffffffffffffffffffffffffffffffff1673ffffffffffffffffffffffffffffffffffffffff16815260200190815260200160002060008282540192505081905550816002600083815260200190815260200160002060006101000a81548173ffffffffffffffffffffffffffffffffffffffff021916908373ffffffffffffffffffffffffffffffffffffffff160217905550808273ffffffffffffffffffffffffffffffffffffffff16600073ffffffffffffffffffffffffffffffffffffffff167fddf252ad1be2c89b69c2b068fc378daa952ba7f163c4a11628f55a4df523b3ef60405160405180910390a46121de6000838360016127e5565b5050565b6121eb8261279e565b61222a576040517f08c379a0000000000000000000000000000000000000000000000000000000008152600401612221906138ee565b60405180910390fd5b80600660008481526020019081526020016000209080519060200190612251929190612d5d565b507ff8e1a15aba9398e019f0b49df1a4fde98ee17ae345cb5f6b5e2c27f5033e8ce78260405161228191906139ee565b60405180910390a15050565b600081116122d0576040517f08c379a00000000000000000000000000000000000000000000000000000000081526004016122c79061392e565b60405180910390fd5b6009543414612314576040517f08c379a000000000000000000000000000000000000000000000000000000000815260040161230b906138ae565b60405180910390fd5b6040518060a001604052808381526020013373ffffffffffffffffffffffffffffffffffffffff1681526020013073ffffffffffffffffffffffffffffffffffffffff16815260200182815260200160001515815250600b60008481526020019081526020016000206000820151816000015560208201518160010160006101000a81548173ffffffffffffffffffffffffffffffffffffffff021916908373ffffffffffffffffffffffffffffffffffffffff16021790555060408201518160020160006101000a81548173ffffffffffffffffffffffffffffffffffffffff021916908373ffffffffffffffffffffffffffffffffffffffff1602179055506060820151816003015560808201518160040160006101000a81548160ff02191690831515021790555090505061244d333084611c77565b817fdebdb32cb5230ab727c9c361b16fdb2015df225c10e6a3e7f60ecd5dc5be45163330846000604051612484949392919061369e565b60405180910390a25050565b600081600001549050600081116124dc576040517f08c379a00000000000000000000000000000000000000000000000000000000081526004016124d3906137ce565b60405180910390fd5b6001810382600001819055505050565b8173ffffffffffffffffffffffffffffffffffffffff168373ffffffffffffffffffffffffffffffffffffffff16141561255b576040517f08c379a00000000000000000000000000000000000000000000000000000000081526004016125529061388e565b60405180910390fd5b80600560008573ffffffffffffffffffffffffffffffffffffffff1673ffffffffffffffffffffffffffffffffffffffff16815260200190815260200160002060008473ffffffffffffffffffffffffffffffffffffffff1673ffffffffffffffffffffffffffffffffffffffff16815260200190815260200160002060006101000a81548160ff0219169083151502179055508173ffffffffffffffffffffffffffffffffffffffff168373ffffffffffffffffffffffffffffffffffffffff167f17307eab39ab6107e8899845ad3d59bd9653f200f220920489ca2b5937696c318360405161264c9190613751565b60405180910390a3505050565b612664848484611c77565b612670848484846127eb565b6126af576040517f08c379a00000000000000000000000000000000000000000000000000000000081526004016126a6906137ee565b60405180910390fd5b50505050565b606060405180602001604052806000815250905090565b60606126d782611ac8565b60006126e16126b5565b90506000815111612701576040518060200160405280600081525061272c565b8061270b84612982565b60405160200161271c92919061365f565b6040516020818303038152906040525b915050919050565b60007f01ffc9a7000000000000000000000000000000000000000000000000000000007bffffffffffffffffffffffffffffffffffffffffffffffffffffffff1916827bffffffffffffffffffffffffffffffffffffffffffffffffffffffff1916149050919050565b60008073ffffffffffffffffffffffffffffffffffffffff166127c083611f71565b73ffffffffffffffffffffffffffffffffffffffff1614159050919050565b50505050565b50505050565b600061280c8473ffffffffffffffffffffffffffffffffffffffff16612aa6565b15612975578373ffffffffffffffffffffffffffffffffffffffff1663150b7a02612835611b13565b8786866040518563ffffffff1660e01b815260040161285794939291906136e3565b602060405180830381600087803b15801561287157600080fd5b505af19250505080156128a257506040513d601f19601f8201168201806040525081019061289f9190613109565b60015b612925573d80600081146128d2576040519150601f19603f3d011682016040523d82523d6000602084013e6128d7565b606091505b5060008151141561291d576040517f08c379a0000000000000000000000000000000000000000000000000000000008152600401612914906137ee565b60405180910390fd5b805181602001fd5b63150b7a0260e01b7bffffffffffffffffffffffffffffffffffffffffffffffffffffffff1916817bffffffffffffffffffffffffffffffffffffffffffffffffffffffff19161491505061297a565b600190505b949350505050565b60606000600161299184612ac9565b01905060008167ffffffffffffffff8111156129d6577f4e487b7100000000000000000000000000000000000000000000000000000000600052604160045260246000fd5b6040519080825280601f01601f191660200182016040528015612a085781602001600182028036833780820191505090505b509050600082602001820190505b600115612a9b578080600190039150507f3031323334353637383961626364656600000000000000000000000000000000600a86061a8153600a8581612a85577f4e487b7100000000000000000000000000000000000000000000000000000000600052601260045260246000fd5b0494506000851415612a9657612a9b565b612a16565b819350505050919050565b6000808273ffffffffffffffffffffffffffffffffffffffff163b119050919050565b600080600090507a184f03e93ff9f4daa797ed6e38ed64bf6a1f0100000000000000008310612b4d577a184f03e93ff9f4daa797ed6e38ed64bf6a1f0100000000000000008381612b43577f4e487b7100000000000000000000000000000000000000000000000000000000600052601260045260246000fd5b0492506040810190505b6d04ee2d6d415b85acef81000000008310612bb0576d04ee2d6d415b85acef81000000008381612ba6577f4e487b7100000000000000000000000000000000000000000000000000000000600052601260045260246000fd5b0492506020810190505b662386f26fc100008310612c0557662386f26fc100008381612bfb577f4e487b7100000000000000000000000000000000000000000000000000000000600052601260045260246000fd5b0492506010810190505b6305f5e1008310612c54576305f5e1008381612c4a577f4e487b7100000000000000000000000000000000000000000000000000000000600052601260045260246000fd5b0492506008810190505b6127108310612c9f576127108381612c95577f4e487b7100000000000000000000000000000000000000000000000000000000600052601260045260246000fd5b0492506004810190505b60648310612ce85760648381612cde577f4e487b7100000000000000000000000000000000000000000000000000000000600052601260045260246000fd5b0492506002810190505b600a8310612cf7576001810190505b80915050919050565b6040518060a0016040528060008152602001600073ffffffffffffffffffffffffffffffffffffffff168152602001600073ffffffffffffffffffffffffffffffffffffffff168152602001600081526020016000151581525090565b828054612d6990613c5e565b90600052602060002090601f016020900481019282612d8b5760008555612dd2565b82601f10612da457805160ff1916838001178555612dd2565b82800160010185558215612dd2579182015b82811115612dd1578251825591602001919060010190612db6565b5b509050612ddf9190612de3565b5090565b5b80821115612dfc576000816000905550600101612de4565b5090565b6000612e13612e0e84613a2e565b613a09565b905082815260208101848484011115612e2b57600080fd5b612e36848285613c1c565b509392505050565b6000612e51612e4c84613a5f565b613a09565b905082815260208101848484011115612e6957600080fd5b612e74848285613c1c565b509392505050565b600081359050612e8b81614255565b92915050565b600081359050612ea08161426c565b92915050565b600081359050612eb581614283565b92915050565b600081519050612eca81614283565b92915050565b600082601f830112612ee157600080fd5b8135612ef1848260208601612e00565b91505092915050565b600082601f830112612f0b57600080fd5b8135612f1b848260208601612e3e565b91505092915050565b600081359050612f338161429a565b92915050565b600060208284031215612f4b57600080fd5b6000612f5984828501612e7c565b91505092915050565b60008060408385031215612f7557600080fd5b6000612f8385828601612e7c565b9250506020612f9485828601612e7c565b9150509250929050565b600080600060608486031215612fb357600080fd5b6000612fc186828701612e7c565b9350506020612fd286828701612e7c565b9250506040612fe386828701612f24565b9150509250925092565b6000806000806080858703121561300357600080fd5b600061301187828801612e7c565b945050602061302287828801612e7c565b935050604061303387828801612f24565b925050606085013567ffffffffffffffff81111561305057600080fd5b61305c87828801612ed0565b91505092959194509250565b6000806040838503121561307b57600080fd5b600061308985828601612e7c565b925050602061309a85828601612e91565b9150509250929050565b600080604083850312156130b757600080fd5b60006130c585828601612e7c565b92505060206130d685828601612f24565b9150509250929050565b6000602082840312156130f257600080fd5b600061310084828501612ea6565b91505092915050565b60006020828403121561311b57600080fd5b600061312984828501612ebb565b91505092915050565b6000806040838503121561314557600080fd5b600083013567ffffffffffffffff81111561315f57600080fd5b61316b85828601612efa565b925050602061317c85828601612f24565b9150509250929050565b60006020828403121561319857600080fd5b60006131a684828501612f24565b91505092915050565b600080604083850312156131c257600080fd5b60006131d085828601612f24565b92505060206131e185828601612f24565b9150509250929050565b60006131f783836135d9565b60a08301905092915050565b61320c81613ba8565b82525050565b61321b81613b96565b82525050565b600061322c82613aa0565b6132368185613ace565b935061324183613a90565b8060005b8381101561327257815161325988826131eb565b975061326483613ac1565b925050600181019050613245565b5085935050505092915050565b61328881613bba565b82525050565b61329781613bba565b82525050565b60006132a882613aab565b6132b28185613adf565b93506132c2818560208601613c2b565b6132cb81613d97565b840191505092915050565b60006132e182613ab6565b6132eb8185613af0565b93506132fb818560208601613c2b565b61330481613d97565b840191505092915050565b600061331a82613ab6565b6133248185613b01565b9350613334818560208601613c2b565b80840191505092915050565b600061334d601a83613af0565b915061335882613da8565b602082019050919050565b6000613370602d83613af0565b915061337b82613dd1565b604082019050919050565b6000613393601b83613af0565b915061339e82613e20565b602082019050919050565b60006133b6603283613af0565b91506133c182613e49565b604082019050919050565b60006133d9602783613af0565b91506133e482613e98565b604082019050919050565b60006133fc602583613af0565b915061340782613ee7565b604082019050919050565b600061341f601c83613af0565b915061342a82613f36565b602082019050919050565b6000613442602483613af0565b915061344d82613f5f565b604082019050919050565b6000613465601983613af0565b915061347082613fae565b602082019050919050565b6000613488602483613af0565b915061349382613fd7565b604082019050919050565b60006134ab602983613af0565b91506134b682614026565b604082019050919050565b60006134ce602e83613af0565b91506134d982614075565b604082019050919050565b60006134f1602083613af0565b91506134fc826140c4565b602082019050919050565b6000613514601783613af0565b915061351f826140ed565b602082019050919050565b6000613537601883613af0565b915061354282614116565b602082019050919050565b600061355a602183613af0565b91506135658261413f565b604082019050919050565b600061357d603d83613af0565b91506135888261418e565b604082019050919050565b60006135a0601f83613af0565b91506135ab826141dd565b602082019050919050565b60006135c3602e83613af0565b91506135ce82614206565b604082019050919050565b60a0820160008201516135ef6000850182613641565b5060208201516136026020850182613203565b5060408201516136156040850182613203565b5060608201516136286060850182613641565b50608082015161363b608085018261327f565b50505050565b61364a81613c12565b82525050565b61365981613c12565b82525050565b600061366b828561330f565b9150613677828461330f565b91508190509392505050565b60006020820190506136986000830184613212565b92915050565b60006080820190506136b36000830187613212565b6136c06020830186613212565b6136cd6040830185613650565b6136da606083018461328e565b95945050505050565b60006080820190506136f86000830187613212565b6137056020830186613212565b6137126040830185613650565b8181036060830152613724818461329d565b905095945050505050565b600060208201905081810360008301526137498184613221565b905092915050565b6000602082019050613766600083018461328e565b92915050565b6000602082019050818103600083015261378681846132d6565b905092915050565b600060208201905081810360008301526137a781613340565b9050919050565b600060208201905081810360008301526137c781613363565b9050919050565b600060208201905081810360008301526137e781613386565b9050919050565b60006020820190508181036000830152613807816133a9565b9050919050565b60006020820190508181036000830152613827816133cc565b9050919050565b60006020820190508181036000830152613847816133ef565b9050919050565b6000602082019050818103600083015261386781613412565b9050919050565b6000602082019050818103600083015261388781613435565b9050919050565b600060208201905081810360008301526138a781613458565b9050919050565b600060208201905081810360008301526138c78161347b565b9050919050565b600060208201905081810360008301526138e78161349e565b9050919050565b60006020820190508181036000830152613907816134c1565b9050919050565b60006020820190508181036000830152613927816134e4565b9050919050565b6000602082019050818103600083015261394781613507565b9050919050565b600060208201905081810360008301526139678161352a565b9050919050565b600060208201905081810360008301526139878161354d565b9050919050565b600060208201905081810360008301526139a781613570565b9050919050565b600060208201905081810360008301526139c781613593565b9050919050565b600060208201905081810360008301526139e7816135b6565b9050919050565b6000602082019050613a036000830184613650565b92915050565b6000613a13613a24565b9050613a1f8282613c90565b919050565b6000604051905090565b600067ffffffffffffffff821115613a4957613a48613d68565b5b613a5282613d97565b9050602081019050919050565b600067ffffffffffffffff821115613a7a57613a79613d68565b5b613a8382613d97565b9050602081019050919050565b6000819050602082019050919050565b600081519050919050565b600081519050919050565b600081519050919050565b6000602082019050919050565b600082825260208201905092915050565b600082825260208201905092915050565b600082825260208201905092915050565b600081905092915050565b6000613b1782613c12565b9150613b2283613c12565b9250827fffffffffffffffffffffffffffffffffffffffffffffffffffffffffffffffff03821115613b5757613b56613d0a565b5b828201905092915050565b6000613b6d82613c12565b9150613b7883613c12565b925082821015613b8b57613b8a613d0a565b5b828203905092915050565b6000613ba182613bf2565b9050919050565b6000613bb382613bf2565b9050919050565b60008115159050919050565b60007fffffffff0000000000000000000000000000000000000000000000000000000082169050919050565b600073ffffffffffffffffffffffffffffffffffffffff82169050919050565b6000819050919050565b82818337600083830152505050565b60005b83811015613c49578082015181840152602081019050613c2e565b83811115613c58576000848401525b50505050565b60006002820490506001821680613c7657607f821691505b60208210811415613c8a57613c89613d39565b5b50919050565b613c9982613d97565b810181811067ffffffffffffffff82111715613cb857613cb7613d68565b5b80604052505050565b6000613ccc82613c12565b91507fffffffffffffffffffffffffffffffffffffffffffffffffffffffffffffffff821415613cff57613cfe613d0a565b5b600182019050919050565b7f4e487b7100000000000000000000000000000000000000000000000000000000600052601160045260246000fd5b7f4e487b7100000000000000000000000000000000000000000000000000000000600052602260045260246000fd5b7f4e487b7100000000000000000000000000000000000000000000000000000000600052604160045260246000fd5b6000601f19601f8301169050919050565b7f6f6e6c79206974656d206f776e65722063616e20726573656c6c000000000000600082015250565b7f4552433732313a2063616c6c6572206973206e6f7420746f6b656e206f776e6560008201527f72206f7220617070726f76656400000000000000000000000000000000000000602082015250565b7f436f756e7465723a2064656372656d656e74206f766572666c6f770000000000600082015250565b7f4552433732313a207472616e7366657220746f206e6f6e20455243373231526560008201527f63656976657220696d706c656d656e7465720000000000000000000000000000602082015250565b7f6f6e6c79206f776e65722063616e206368616e676520746865206c697374696e60008201527f6720707269636500000000000000000000000000000000000000000000000000602082015250565b7f4552433732313a207472616e736665722066726f6d20696e636f72726563742060008201527f6f776e6572000000000000000000000000000000000000000000000000000000602082015250565b7f4552433732313a20746f6b656e20616c7265616479206d696e74656400000000600082015250565b7f4552433732313a207472616e7366657220746f20746865207a65726f2061646460008201527f7265737300000000000000000000000000000000000000000000000000000000602082015250565b7f4552433732313a20617070726f766520746f2063616c6c657200000000000000600082015250565b7f5072696d65206d75737420626520657175616c20746f206c697374696e67207060008201527f7269636500000000000000000000000000000000000000000000000000000000602082015250565b7f4552433732313a2061646472657373207a65726f206973206e6f74206120766160008201527f6c6964206f776e65720000000000000000000000000000000000000000000000602082015250565b7f45524337323155524953746f726167653a2055524920736574206f66206e6f6e60008201527f6578697374656e7420746f6b656e000000000000000000000000000000000000602082015250565b7f4552433732313a206d696e7420746f20746865207a65726f2061646472657373600082015250565b7f7072696365206d7573742062652061746c656173742031000000000000000000600082015250565b7f4552433732313a20696e76616c696420746f6b656e2049440000000000000000600082015250565b7f4552433732313a20617070726f76616c20746f2063757272656e74206f776e6560008201527f7200000000000000000000000000000000000000000000000000000000000000602082015250565b7f4552433732313a20617070726f76652063616c6c6572206973206e6f7420746f60008201527f6b656e206f776e6572206f7220617070726f76656420666f7220616c6c000000602082015250565b7f706c65617365207375626d6974207468652061736b696e672070726963652000600082015250565b7f50726963696e67206d7573742062652061746c6561737420657175616c20746f60008201527f206c697374696e67207072696365000000000000000000000000000000000000602082015250565b61425e81613b96565b811461426957600080fd5b50565b61427581613bba565b811461428057600080fd5b50565b61428c81613bc6565b811461429757600080fd5b50565b6142a381613c12565b81146142ae57600080fd5b5056fea264697066735822122069270c397d8c6fe795b1deff42fdc2af5c195e9e2b8d7793a6f3062b907da47864736f6c63430008040033",
  "linkReferences": {},
  "deployedLinkReferences": {}
}